{
  "contracts/implementations/BatchDeposit.sol": {
    "BatchDeposit": {
      "abi": [
        {
          "inputs": [],
          "name": "DepositValueGreaterThan2048ETH",
          "type": "error"
        },
        {
          "inputs": [],
          "name": "DepositValueLessThan1ETH",
          "type": "error"
        },
        {
          "inputs": [],
          "name": "DepositValueMustBeMultipleOfGwei",
          "type": "error"
        },
        {
          "inputs": [],
          "name": "ETHNotAccepted",
          "type": "error"
        },
        {
          "inputs": [],
          "name": "FallbackMethodNotAccepted",
          "type": "error"
        },
        {
          "inputs": [],
          "name": "InvalidPubKeyLength",
          "type": "error"
        },
        {
          "inputs": [],
          "name": "InvalidSignatureLength",
          "type": "error"
        },
        {
          "inputs": [],
          "name": "InvalidWithdrawalCredLength",
          "type": "error"
        },
        {
          "inputs": [],
          "name": "MsgValueNotEqualToTotalDepositAmount",
          "type": "error"
        },
        {
          "inputs": [],
          "name": "NoDepositsProvided",
          "type": "error"
        },
        {
          "anonymous": false,
          "inputs": [
            {
              "indexed": true,
              "internalType": "bytes",
              "name": "pubKey",
              "type": "bytes"
            },
            {
              "indexed": true,
              "internalType": "bytes",
              "name": "withdrawalCredentials",
              "type": "bytes"
            },
            {
              "indexed": false,
              "internalType": "uint256",
              "name": "amount",
              "type": "uint256"
            }
          ],
          "name": "ValidatorDeposit",
          "type": "event"
        },
        {
          "stateMutability": "payable",
          "type": "fallback"
        },
        {
          "inputs": [
            {
              "components": [
                {
                  "internalType": "bytes",
                  "name": "pubKey",
                  "type": "bytes"
                },
                {
                  "internalType": "bytes",
                  "name": "withdrawalCredentials",
                  "type": "bytes"
                },
                {
                  "internalType": "bytes",
                  "name": "signature",
                  "type": "bytes"
                },
                {
                  "internalType": "uint256",
                  "name": "amount",
                  "type": "uint256"
                }
              ],
              "internalType": "struct IBatchDeposit.Deposit[]",
              "name": "_deposits",
              "type": "tuple[]"
            }
          ],
          "name": "batchDeposit",
          "outputs": [],
          "stateMutability": "payable",
          "type": "function"
        },
        {
          "inputs": [],
          "name": "depositContract",
          "outputs": [
            {
              "internalType": "contract IDepositContract",
              "name": "",
              "type": "address"
            }
          ],
          "stateMutability": "view",
          "type": "function"
        },
        {
          "stateMutability": "payable",
          "type": "receive"
        }
      ],
      "evm": {
        "bytecode": {
          "linkReferences": {},
          "object": "60808060405234601557610b0f908161001b8239f35b600080fdfe60806040526004361015610018575b3661063357610623565b60003560e01c8063e2ee27bf146100385763e94ad65b0361000e57610386565b60203660031901126102235760043567ffffffffffffffff8111610223573660238201121561022357806004013567ffffffffffffffff8111610223576024820191602436918360051b01011161022357801561036a576000805b828110610239575034036102285760005b8181106100ad57005b6100c86100c36100be8385876103c7565b61050e565b6106be565b9060606100d68285876103c7565b0135916100ed6100e78386886103c7565b806103ee565b936101066100fc85888a6103c7565b60208101906103ee565b959092610121610117878a8c6103c7565b60408101906103ee565b956f219ab540356cbb839cbe05303d7705fa3b156102235760009661015d926040519a8b98899788976304512a2360e31b8952600489016105bf565b03916f219ab540356cbb839cbe05303d7705fa5af191821561021e57600192610203575b506101e3847f07468d6bd11350def18feb2ba4201196d670bdf016f5e33b4cbf4c202b41fbbd6101fa6101e9876101bc6100e78883886103c7565b60606101db8a6101d36100fc82888d9e989e6103c7565b96909a6103c7565b01359761060e565b9461060e565b604051948552939081906020820190565b0390a3016100a4565b80610212600061021893610489565b8061037b565b84610181565b610602565b600080fd5b6306b2ca4160e51b60005260046000fd5b90603061024a6100e78486886103c7565b90500361035957602061026a6102618486886103c7565b828101906103ee565b9050036103485760606102816101178486886103c7565b90500361033757670de0b6b3a7640000606061029e8486886103c7565b01351061032757686f05b59d3b2000000060606102bc8486886103c7565b013511610316576102df60606102d38486886103c7565b0135633b9aca00900690565b610305576102fe60019160606102f68587896103c7565b013590610445565b9101610093565b6333670f3d60e21b60005260046000fd5b63546027bb60e01b60005260046000fd5b6271ed1d60e31b60005260046000fd5b634be6321b60e01b60005260046000fd5b63233fb10560e21b60005260046000fd5b634f88323960e11b60005260046000fd5b63db9d78e360e01b60005260046000fd5b600091031261022357565b346102235760003660031901126102235760206040516f219ab540356cbb839cbe05303d7705fa8152f35b634e487b7160e01b600052603260045260246000fd5b91908110156103e95760051b81013590607e1981360301821215610223570190565b6103b1565b903590601e1981360301821215610223570180359067ffffffffffffffff82116102235760200191813603831361022357565b90601f820180921161042f57565b634e487b7160e01b600052601160045260246000fd5b9190820180921161042f57565b634e487b7160e01b600052604160045260246000fd5b6080810190811067ffffffffffffffff82111761048457604052565b610452565b90601f8019910116810190811067ffffffffffffffff82111761048457604052565b67ffffffffffffffff811161048457601f01601f191660200190565b81601f82011215610223578035906104de826104ab565b926104ec6040519485610489565b8284526020838301011161022357816000926020809301838601378301015290565b608081360312610223576040519061052582610468565b803567ffffffffffffffff81116102235761054390369083016104c7565b8252602081013567ffffffffffffffff81116102235761056690369083016104c7565b602083015260408101359067ffffffffffffffff82116102235761058f606092369083016104c7565b60408401520135606082015290565b908060209392818452848401376000828201840152601f01601f1916010190565b97969591926105fd946105e16105ef936060989660808d5260808d019161059e565b918a830360208c015261059e565b91878303604089015261059e565b930152565b6040513d6000823e3d90fd5b81604051928392833781016000815203902090565b6248c6b960e61b60005260046000fd5b63686c63cf60e11b60005260046000fd5b9081519160005b83811061065c575050016000815290565b806020809284010151818501520161064b565b61067b90601092610644565b600081520190565b61067b90602092610644565b6020906106a0939281520190610644565b90565b6106b09060389392610644565b906000825260188201520190565b6106e86106e36106d66060840151633b9aca00900490565b67ffffffffffffffff1690565b6108da565b9060206000610720610706610714855160405192839187830161066f565b03601f198101835282610489565b60405191828092610644565b039060025afa1561021e57600051604082016020600061075861070661071461074986516109f9565b60405192839187830190610644565b039060025afa1561021e576020600061078a61070661071461077c84519651610a7c565b604051928391878301610683565b039060025afa1561021e5760006107bf6020926107148351916107066040519384928884019091604092825260208201520190565b039060025afa1561021e5760006107ed6020926107148484519601519161070660405193849288840161068f565b039060025afa1561021e5760006108176020926107148351956107066040519384928884016106a3565b039060025afa1561021e57600061084c6020926107148351916107066040519384928884019091604092825260208201520190565b039060025afa1561021e5760005190565b8051156103e95760200190565b8051600110156103e95760210190565b8051600210156103e95760220190565b8051600310156103e95760230190565b8051600410156103e95760240190565b8051600510156103e95760250190565b8051600610156103e95760260190565b8051600710156103e95760270190565b9060408051906108ea8183610489565b60088252601f1901366020830137610979819367ffffffffffffffff60c01b9060c01b168060071a61091b8461085d565b538060061a6109298461086a565b538060051a6109378461087a565b538060041a6109458461088a565b538060031a6109538461089a565b538060021a610961846108aa565b538060011a61096f846108ba565b5360001a916108ca565b53565b1561098357565b60405162461bcd60e51b815260206004820152600e60248201526d736c6963655f6f766572666c6f7760901b6044820152606490fd5b156109c057565b60405162461bcd60e51b8152602060048201526011602482015270736c6963655f6f75744f66426f756e647360781b6044820152606490fd5b6000610a106040610a0981610421565b101561097c565b81516040820190818311610a685790610a2a9110156109b9565b506040519060208083019101606083015b808310610a5557505060408252601f801991011660405290565b9091602080918451815201920190610a3b565b634e487b7160e01b83526011600452602483fd5b610a8a6020610a0981610421565b80516060610a999110156109b9565b6040519060208201906060604084019101905b808310610ac657505060208252601f01601f191660405290565b9091602080918451815201920190610aac56fea2646970667358221220f6caaf066130938823cb0c0e45a155e30dfff78e69566ba611f2be286414992664736f6c634300081c0033",
          "opcodes": "PUSH1 0x80 DUP1 PUSH1 0x40 MSTORE CALLVALUE PUSH1 0x15 JUMPI PUSH2 0xB0F SWAP1 DUP2 PUSH2 0x1B DUP3 CODECOPY RETURN JUMPDEST PUSH1 0x0 DUP1 REVERT INVALID PUSH1 0x80 PUSH1 0x40 MSTORE PUSH1 0x4 CALLDATASIZE LT ISZERO PUSH2 0x18 JUMPI JUMPDEST CALLDATASIZE PUSH2 0x633 JUMPI PUSH2 0x623 JUMP JUMPDEST PUSH1 0x0 CALLDATALOAD PUSH1 0xE0 SHR DUP1 PUSH4 0xE2EE27BF EQ PUSH2 0x38 JUMPI PUSH4 0xE94AD65B SUB PUSH2 0xE JUMPI PUSH2 0x386 JUMP JUMPDEST PUSH1 0x20 CALLDATASIZE PUSH1 0x3 NOT ADD SLT PUSH2 0x223 JUMPI PUSH1 0x4 CALLDATALOAD PUSH8 0xFFFFFFFFFFFFFFFF DUP2 GT PUSH2 0x223 JUMPI CALLDATASIZE PUSH1 0x23 DUP3 ADD SLT ISZERO PUSH2 0x223 JUMPI DUP1 PUSH1 0x4 ADD CALLDATALOAD PUSH8 0xFFFFFFFFFFFFFFFF DUP2 GT PUSH2 0x223 JUMPI PUSH1 0x24 DUP3 ADD SWAP2 PUSH1 0x24 CALLDATASIZE SWAP2 DUP4 PUSH1 0x5 SHL ADD ADD GT PUSH2 0x223 JUMPI DUP1 ISZERO PUSH2 0x36A JUMPI PUSH1 0x0 DUP1 JUMPDEST DUP3 DUP2 LT PUSH2 0x239 JUMPI POP CALLVALUE SUB PUSH2 0x228 JUMPI PUSH1 0x0 JUMPDEST DUP2 DUP2 LT PUSH2 0xAD JUMPI STOP JUMPDEST PUSH2 0xC8 PUSH2 0xC3 PUSH2 0xBE DUP4 DUP6 DUP8 PUSH2 0x3C7 JUMP JUMPDEST PUSH2 0x50E JUMP JUMPDEST PUSH2 0x6BE JUMP JUMPDEST SWAP1 PUSH1 0x60 PUSH2 0xD6 DUP3 DUP6 DUP8 PUSH2 0x3C7 JUMP JUMPDEST ADD CALLDATALOAD SWAP2 PUSH2 0xED PUSH2 0xE7 DUP4 DUP7 DUP9 PUSH2 0x3C7 JUMP JUMPDEST DUP1 PUSH2 0x3EE JUMP JUMPDEST SWAP4 PUSH2 0x106 PUSH2 0xFC DUP6 DUP9 DUP11 PUSH2 0x3C7 JUMP JUMPDEST PUSH1 0x20 DUP2 ADD SWAP1 PUSH2 0x3EE JUMP JUMPDEST SWAP6 SWAP1 SWAP3 PUSH2 0x121 PUSH2 0x117 DUP8 DUP11 DUP13 PUSH2 0x3C7 JUMP JUMPDEST PUSH1 0x40 DUP2 ADD SWAP1 PUSH2 0x3EE JUMP JUMPDEST SWAP6 PUSH16 0x219AB540356CBB839CBE05303D7705FA EXTCODESIZE ISZERO PUSH2 0x223 JUMPI PUSH1 0x0 SWAP7 PUSH2 0x15D SWAP3 PUSH1 0x40 MLOAD SWAP11 DUP12 SWAP9 DUP10 SWAP8 DUP9 SWAP8 PUSH4 0x4512A23 PUSH1 0xE3 SHL DUP10 MSTORE PUSH1 0x4 DUP10 ADD PUSH2 0x5BF JUMP JUMPDEST SUB SWAP2 PUSH16 0x219AB540356CBB839CBE05303D7705FA GAS CALL SWAP2 DUP3 ISZERO PUSH2 0x21E JUMPI PUSH1 0x1 SWAP3 PUSH2 0x203 JUMPI JUMPDEST POP PUSH2 0x1E3 DUP5 PUSH32 0x7468D6BD11350DEF18FEB2BA4201196D670BDF016F5E33B4CBF4C202B41FBBD PUSH2 0x1FA PUSH2 0x1E9 DUP8 PUSH2 0x1BC PUSH2 0xE7 DUP9 DUP4 DUP9 PUSH2 0x3C7 JUMP JUMPDEST PUSH1 0x60 PUSH2 0x1DB DUP11 PUSH2 0x1D3 PUSH2 0xFC DUP3 DUP9 DUP14 SWAP15 SWAP9 SWAP15 PUSH2 0x3C7 JUMP JUMPDEST SWAP7 SWAP1 SWAP11 PUSH2 0x3C7 JUMP JUMPDEST ADD CALLDATALOAD SWAP8 PUSH2 0x60E JUMP JUMPDEST SWAP5 PUSH2 0x60E JUMP JUMPDEST PUSH1 0x40 MLOAD SWAP5 DUP6 MSTORE SWAP4 SWAP1 DUP2 SWAP1 PUSH1 0x20 DUP3 ADD SWAP1 JUMP JUMPDEST SUB SWAP1 LOG3 ADD PUSH2 0xA4 JUMP JUMPDEST DUP1 PUSH2 0x212 PUSH1 0x0 PUSH2 0x218 SWAP4 PUSH2 0x489 JUMP JUMPDEST DUP1 PUSH2 0x37B JUMP JUMPDEST DUP5 PUSH2 0x181 JUMP JUMPDEST PUSH2 0x602 JUMP JUMPDEST PUSH1 0x0 DUP1 REVERT JUMPDEST PUSH4 0x6B2CA41 PUSH1 0xE5 SHL PUSH1 0x0 MSTORE PUSH1 0x4 PUSH1 0x0 REVERT JUMPDEST SWAP1 PUSH1 0x30 PUSH2 0x24A PUSH2 0xE7 DUP5 DUP7 DUP9 PUSH2 0x3C7 JUMP JUMPDEST SWAP1 POP SUB PUSH2 0x359 JUMPI PUSH1 0x20 PUSH2 0x26A PUSH2 0x261 DUP5 DUP7 DUP9 PUSH2 0x3C7 JUMP JUMPDEST DUP3 DUP2 ADD SWAP1 PUSH2 0x3EE JUMP JUMPDEST SWAP1 POP SUB PUSH2 0x348 JUMPI PUSH1 0x60 PUSH2 0x281 PUSH2 0x117 DUP5 DUP7 DUP9 PUSH2 0x3C7 JUMP JUMPDEST SWAP1 POP SUB PUSH2 0x337 JUMPI PUSH8 0xDE0B6B3A7640000 PUSH1 0x60 PUSH2 0x29E DUP5 DUP7 DUP9 PUSH2 0x3C7 JUMP JUMPDEST ADD CALLDATALOAD LT PUSH2 0x327 JUMPI PUSH9 0x6F05B59D3B20000000 PUSH1 0x60 PUSH2 0x2BC DUP5 DUP7 DUP9 PUSH2 0x3C7 JUMP JUMPDEST ADD CALLDATALOAD GT PUSH2 0x316 JUMPI PUSH2 0x2DF PUSH1 0x60 PUSH2 0x2D3 DUP5 DUP7 DUP9 PUSH2 0x3C7 JUMP JUMPDEST ADD CALLDATALOAD PUSH4 0x3B9ACA00 SWAP1 MOD SWAP1 JUMP JUMPDEST PUSH2 0x305 JUMPI PUSH2 0x2FE PUSH1 0x1 SWAP2 PUSH1 0x60 PUSH2 0x2F6 DUP6 DUP8 DUP10 PUSH2 0x3C7 JUMP JUMPDEST ADD CALLDATALOAD SWAP1 PUSH2 0x445 JUMP JUMPDEST SWAP2 ADD PUSH2 0x93 JUMP JUMPDEST PUSH4 0x33670F3D PUSH1 0xE2 SHL PUSH1 0x0 MSTORE PUSH1 0x4 PUSH1 0x0 REVERT JUMPDEST PUSH4 0x546027BB PUSH1 0xE0 SHL PUSH1 0x0 MSTORE PUSH1 0x4 PUSH1 0x0 REVERT JUMPDEST PUSH3 0x71ED1D PUSH1 0xE3 SHL PUSH1 0x0 MSTORE PUSH1 0x4 PUSH1 0x0 REVERT JUMPDEST PUSH4 0x4BE6321B PUSH1 0xE0 SHL PUSH1 0x0 MSTORE PUSH1 0x4 PUSH1 0x0 REVERT JUMPDEST PUSH4 0x233FB105 PUSH1 0xE2 SHL PUSH1 0x0 MSTORE PUSH1 0x4 PUSH1 0x0 REVERT JUMPDEST PUSH4 0x4F883239 PUSH1 0xE1 SHL PUSH1 0x0 MSTORE PUSH1 0x4 PUSH1 0x0 REVERT JUMPDEST PUSH4 0xDB9D78E3 PUSH1 0xE0 SHL PUSH1 0x0 MSTORE PUSH1 0x4 PUSH1 0x0 REVERT JUMPDEST PUSH1 0x0 SWAP2 SUB SLT PUSH2 0x223 JUMPI JUMP JUMPDEST CALLVALUE PUSH2 0x223 JUMPI PUSH1 0x0 CALLDATASIZE PUSH1 0x3 NOT ADD SLT PUSH2 0x223 JUMPI PUSH1 0x20 PUSH1 0x40 MLOAD PUSH16 0x219AB540356CBB839CBE05303D7705FA DUP2 MSTORE RETURN JUMPDEST PUSH4 0x4E487B71 PUSH1 0xE0 SHL PUSH1 0x0 MSTORE PUSH1 0x32 PUSH1 0x4 MSTORE PUSH1 0x24 PUSH1 0x0 REVERT JUMPDEST SWAP2 SWAP1 DUP2 LT ISZERO PUSH2 0x3E9 JUMPI PUSH1 0x5 SHL DUP2 ADD CALLDATALOAD SWAP1 PUSH1 0x7E NOT DUP2 CALLDATASIZE SUB ADD DUP3 SLT ISZERO PUSH2 0x223 JUMPI ADD SWAP1 JUMP JUMPDEST PUSH2 0x3B1 JUMP JUMPDEST SWAP1 CALLDATALOAD SWAP1 PUSH1 0x1E NOT DUP2 CALLDATASIZE SUB ADD DUP3 SLT ISZERO PUSH2 0x223 JUMPI ADD DUP1 CALLDATALOAD SWAP1 PUSH8 0xFFFFFFFFFFFFFFFF DUP3 GT PUSH2 0x223 JUMPI PUSH1 0x20 ADD SWAP2 DUP2 CALLDATASIZE SUB DUP4 SGT PUSH2 0x223 JUMPI JUMP JUMPDEST SWAP1 PUSH1 0x1F DUP3 ADD DUP1 SWAP3 GT PUSH2 0x42F JUMPI JUMP JUMPDEST PUSH4 0x4E487B71 PUSH1 0xE0 SHL PUSH1 0x0 MSTORE PUSH1 0x11 PUSH1 0x4 MSTORE PUSH1 0x24 PUSH1 0x0 REVERT JUMPDEST SWAP2 SWAP1 DUP3 ADD DUP1 SWAP3 GT PUSH2 0x42F JUMPI JUMP JUMPDEST PUSH4 0x4E487B71 PUSH1 0xE0 SHL PUSH1 0x0 MSTORE PUSH1 0x41 PUSH1 0x4 MSTORE PUSH1 0x24 PUSH1 0x0 REVERT JUMPDEST PUSH1 0x80 DUP2 ADD SWAP1 DUP2 LT PUSH8 0xFFFFFFFFFFFFFFFF DUP3 GT OR PUSH2 0x484 JUMPI PUSH1 0x40 MSTORE JUMP JUMPDEST PUSH2 0x452 JUMP JUMPDEST SWAP1 PUSH1 0x1F DUP1 NOT SWAP2 ADD AND DUP2 ADD SWAP1 DUP2 LT PUSH8 0xFFFFFFFFFFFFFFFF DUP3 GT OR PUSH2 0x484 JUMPI PUSH1 0x40 MSTORE JUMP JUMPDEST PUSH8 0xFFFFFFFFFFFFFFFF DUP2 GT PUSH2 0x484 JUMPI PUSH1 0x1F ADD PUSH1 0x1F NOT AND PUSH1 0x20 ADD SWAP1 JUMP JUMPDEST DUP2 PUSH1 0x1F DUP3 ADD SLT ISZERO PUSH2 0x223 JUMPI DUP1 CALLDATALOAD SWAP1 PUSH2 0x4DE DUP3 PUSH2 0x4AB JUMP JUMPDEST SWAP3 PUSH2 0x4EC PUSH1 0x40 MLOAD SWAP5 DUP6 PUSH2 0x489 JUMP JUMPDEST DUP3 DUP5 MSTORE PUSH1 0x20 DUP4 DUP4 ADD ADD GT PUSH2 0x223 JUMPI DUP2 PUSH1 0x0 SWAP3 PUSH1 0x20 DUP1 SWAP4 ADD DUP4 DUP7 ADD CALLDATACOPY DUP4 ADD ADD MSTORE SWAP1 JUMP JUMPDEST PUSH1 0x80 DUP2 CALLDATASIZE SUB SLT PUSH2 0x223 JUMPI PUSH1 0x40 MLOAD SWAP1 PUSH2 0x525 DUP3 PUSH2 0x468 JUMP JUMPDEST DUP1 CALLDATALOAD PUSH8 0xFFFFFFFFFFFFFFFF DUP2 GT PUSH2 0x223 JUMPI PUSH2 0x543 SWAP1 CALLDATASIZE SWAP1 DUP4 ADD PUSH2 0x4C7 JUMP JUMPDEST DUP3 MSTORE PUSH1 0x20 DUP2 ADD CALLDATALOAD PUSH8 0xFFFFFFFFFFFFFFFF DUP2 GT PUSH2 0x223 JUMPI PUSH2 0x566 SWAP1 CALLDATASIZE SWAP1 DUP4 ADD PUSH2 0x4C7 JUMP JUMPDEST PUSH1 0x20 DUP4 ADD MSTORE PUSH1 0x40 DUP2 ADD CALLDATALOAD SWAP1 PUSH8 0xFFFFFFFFFFFFFFFF DUP3 GT PUSH2 0x223 JUMPI PUSH2 0x58F PUSH1 0x60 SWAP3 CALLDATASIZE SWAP1 DUP4 ADD PUSH2 0x4C7 JUMP JUMPDEST PUSH1 0x40 DUP5 ADD MSTORE ADD CALLDATALOAD PUSH1 0x60 DUP3 ADD MSTORE SWAP1 JUMP JUMPDEST SWAP1 DUP1 PUSH1 0x20 SWAP4 SWAP3 DUP2 DUP5 MSTORE DUP5 DUP5 ADD CALLDATACOPY PUSH1 0x0 DUP3 DUP3 ADD DUP5 ADD MSTORE PUSH1 0x1F ADD PUSH1 0x1F NOT AND ADD ADD SWAP1 JUMP JUMPDEST SWAP8 SWAP7 SWAP6 SWAP2 SWAP3 PUSH2 0x5FD SWAP5 PUSH2 0x5E1 PUSH2 0x5EF SWAP4 PUSH1 0x60 SWAP9 SWAP7 PUSH1 0x80 DUP14 MSTORE PUSH1 0x80 DUP14 ADD SWAP2 PUSH2 0x59E JUMP JUMPDEST SWAP2 DUP11 DUP4 SUB PUSH1 0x20 DUP13 ADD MSTORE PUSH2 0x59E JUMP JUMPDEST SWAP2 DUP8 DUP4 SUB PUSH1 0x40 DUP10 ADD MSTORE PUSH2 0x59E JUMP JUMPDEST SWAP4 ADD MSTORE JUMP JUMPDEST PUSH1 0x40 MLOAD RETURNDATASIZE PUSH1 0x0 DUP3 RETURNDATACOPY RETURNDATASIZE SWAP1 REVERT JUMPDEST DUP2 PUSH1 0x40 MLOAD SWAP3 DUP4 SWAP3 DUP4 CALLDATACOPY DUP2 ADD PUSH1 0x0 DUP2 MSTORE SUB SWAP1 KECCAK256 SWAP1 JUMP JUMPDEST PUSH3 0x48C6B9 PUSH1 0xE6 SHL PUSH1 0x0 MSTORE PUSH1 0x4 PUSH1 0x0 REVERT JUMPDEST PUSH4 0x686C63CF PUSH1 0xE1 SHL PUSH1 0x0 MSTORE PUSH1 0x4 PUSH1 0x0 REVERT JUMPDEST SWAP1 DUP2 MLOAD SWAP2 PUSH1 0x0 JUMPDEST DUP4 DUP2 LT PUSH2 0x65C JUMPI POP POP ADD PUSH1 0x0 DUP2 MSTORE SWAP1 JUMP JUMPDEST DUP1 PUSH1 0x20 DUP1 SWAP3 DUP5 ADD ADD MLOAD DUP2 DUP6 ADD MSTORE ADD PUSH2 0x64B JUMP JUMPDEST PUSH2 0x67B SWAP1 PUSH1 0x10 SWAP3 PUSH2 0x644 JUMP JUMPDEST PUSH1 0x0 DUP2 MSTORE ADD SWAP1 JUMP JUMPDEST PUSH2 0x67B SWAP1 PUSH1 0x20 SWAP3 PUSH2 0x644 JUMP JUMPDEST PUSH1 0x20 SWAP1 PUSH2 0x6A0 SWAP4 SWAP3 DUP2 MSTORE ADD SWAP1 PUSH2 0x644 JUMP JUMPDEST SWAP1 JUMP JUMPDEST PUSH2 0x6B0 SWAP1 PUSH1 0x38 SWAP4 SWAP3 PUSH2 0x644 JUMP JUMPDEST SWAP1 PUSH1 0x0 DUP3 MSTORE PUSH1 0x18 DUP3 ADD MSTORE ADD SWAP1 JUMP JUMPDEST PUSH2 0x6E8 PUSH2 0x6E3 PUSH2 0x6D6 PUSH1 0x60 DUP5 ADD MLOAD PUSH4 0x3B9ACA00 SWAP1 DIV SWAP1 JUMP JUMPDEST PUSH8 0xFFFFFFFFFFFFFFFF AND SWAP1 JUMP JUMPDEST PUSH2 0x8DA JUMP JUMPDEST SWAP1 PUSH1 0x20 PUSH1 0x0 PUSH2 0x720 PUSH2 0x706 PUSH2 0x714 DUP6 MLOAD PUSH1 0x40 MLOAD SWAP3 DUP4 SWAP2 DUP8 DUP4 ADD PUSH2 0x66F JUMP JUMPDEST SUB PUSH1 0x1F NOT DUP2 ADD DUP4 MSTORE DUP3 PUSH2 0x489 JUMP JUMPDEST PUSH1 0x40 MLOAD SWAP2 DUP3 DUP1 SWAP3 PUSH2 0x644 JUMP JUMPDEST SUB SWAP1 PUSH1 0x2 GAS STATICCALL ISZERO PUSH2 0x21E JUMPI PUSH1 0x0 MLOAD PUSH1 0x40 DUP3 ADD PUSH1 0x20 PUSH1 0x0 PUSH2 0x758 PUSH2 0x706 PUSH2 0x714 PUSH2 0x749 DUP7 MLOAD PUSH2 0x9F9 JUMP JUMPDEST PUSH1 0x40 MLOAD SWAP3 DUP4 SWAP2 DUP8 DUP4 ADD SWAP1 PUSH2 0x644 JUMP JUMPDEST SUB SWAP1 PUSH1 0x2 GAS STATICCALL ISZERO PUSH2 0x21E JUMPI PUSH1 0x20 PUSH1 0x0 PUSH2 0x78A PUSH2 0x706 PUSH2 0x714 PUSH2 0x77C DUP5 MLOAD SWAP7 MLOAD PUSH2 0xA7C JUMP JUMPDEST PUSH1 0x40 MLOAD SWAP3 DUP4 SWAP2 DUP8 DUP4 ADD PUSH2 0x683 JUMP JUMPDEST SUB SWAP1 PUSH1 0x2 GAS STATICCALL ISZERO PUSH2 0x21E JUMPI PUSH1 0x0 PUSH2 0x7BF PUSH1 0x20 SWAP3 PUSH2 0x714 DUP4 MLOAD SWAP2 PUSH2 0x706 PUSH1 0x40 MLOAD SWAP4 DUP5 SWAP3 DUP9 DUP5 ADD SWAP1 SWAP2 PUSH1 0x40 SWAP3 DUP3 MSTORE PUSH1 0x20 DUP3 ADD MSTORE ADD SWAP1 JUMP JUMPDEST SUB SWAP1 PUSH1 0x2 GAS STATICCALL ISZERO PUSH2 0x21E JUMPI PUSH1 0x0 PUSH2 0x7ED PUSH1 0x20 SWAP3 PUSH2 0x714 DUP5 DUP5 MLOAD SWAP7 ADD MLOAD SWAP2 PUSH2 0x706 PUSH1 0x40 MLOAD SWAP4 DUP5 SWAP3 DUP9 DUP5 ADD PUSH2 0x68F JUMP JUMPDEST SUB SWAP1 PUSH1 0x2 GAS STATICCALL ISZERO PUSH2 0x21E JUMPI PUSH1 0x0 PUSH2 0x817 PUSH1 0x20 SWAP3 PUSH2 0x714 DUP4 MLOAD SWAP6 PUSH2 0x706 PUSH1 0x40 MLOAD SWAP4 DUP5 SWAP3 DUP9 DUP5 ADD PUSH2 0x6A3 JUMP JUMPDEST SUB SWAP1 PUSH1 0x2 GAS STATICCALL ISZERO PUSH2 0x21E JUMPI PUSH1 0x0 PUSH2 0x84C PUSH1 0x20 SWAP3 PUSH2 0x714 DUP4 MLOAD SWAP2 PUSH2 0x706 PUSH1 0x40 MLOAD SWAP4 DUP5 SWAP3 DUP9 DUP5 ADD SWAP1 SWAP2 PUSH1 0x40 SWAP3 DUP3 MSTORE PUSH1 0x20 DUP3 ADD MSTORE ADD SWAP1 JUMP JUMPDEST SUB SWAP1 PUSH1 0x2 GAS STATICCALL ISZERO PUSH2 0x21E JUMPI PUSH1 0x0 MLOAD SWAP1 JUMP JUMPDEST DUP1 MLOAD ISZERO PUSH2 0x3E9 JUMPI PUSH1 0x20 ADD SWAP1 JUMP JUMPDEST DUP1 MLOAD PUSH1 0x1 LT ISZERO PUSH2 0x3E9 JUMPI PUSH1 0x21 ADD SWAP1 JUMP JUMPDEST DUP1 MLOAD PUSH1 0x2 LT ISZERO PUSH2 0x3E9 JUMPI PUSH1 0x22 ADD SWAP1 JUMP JUMPDEST DUP1 MLOAD PUSH1 0x3 LT ISZERO PUSH2 0x3E9 JUMPI PUSH1 0x23 ADD SWAP1 JUMP JUMPDEST DUP1 MLOAD PUSH1 0x4 LT ISZERO PUSH2 0x3E9 JUMPI PUSH1 0x24 ADD SWAP1 JUMP JUMPDEST DUP1 MLOAD PUSH1 0x5 LT ISZERO PUSH2 0x3E9 JUMPI PUSH1 0x25 ADD SWAP1 JUMP JUMPDEST DUP1 MLOAD PUSH1 0x6 LT ISZERO PUSH2 0x3E9 JUMPI PUSH1 0x26 ADD SWAP1 JUMP JUMPDEST DUP1 MLOAD PUSH1 0x7 LT ISZERO PUSH2 0x3E9 JUMPI PUSH1 0x27 ADD SWAP1 JUMP JUMPDEST SWAP1 PUSH1 0x40 DUP1 MLOAD SWAP1 PUSH2 0x8EA DUP2 DUP4 PUSH2 0x489 JUMP JUMPDEST PUSH1 0x8 DUP3 MSTORE PUSH1 0x1F NOT ADD CALLDATASIZE PUSH1 0x20 DUP4 ADD CALLDATACOPY PUSH2 0x979 DUP2 SWAP4 PUSH8 0xFFFFFFFFFFFFFFFF PUSH1 0xC0 SHL SWAP1 PUSH1 0xC0 SHL AND DUP1 PUSH1 0x7 BYTE PUSH2 0x91B DUP5 PUSH2 0x85D JUMP JUMPDEST MSTORE8 DUP1 PUSH1 0x6 BYTE PUSH2 0x929 DUP5 PUSH2 0x86A JUMP JUMPDEST MSTORE8 DUP1 PUSH1 0x5 BYTE PUSH2 0x937 DUP5 PUSH2 0x87A JUMP JUMPDEST MSTORE8 DUP1 PUSH1 0x4 BYTE PUSH2 0x945 DUP5 PUSH2 0x88A JUMP JUMPDEST MSTORE8 DUP1 PUSH1 0x3 BYTE PUSH2 0x953 DUP5 PUSH2 0x89A JUMP JUMPDEST MSTORE8 DUP1 PUSH1 0x2 BYTE PUSH2 0x961 DUP5 PUSH2 0x8AA JUMP JUMPDEST MSTORE8 DUP1 PUSH1 0x1 BYTE PUSH2 0x96F DUP5 PUSH2 0x8BA JUMP JUMPDEST MSTORE8 PUSH1 0x0 BYTE SWAP2 PUSH2 0x8CA JUMP JUMPDEST MSTORE8 JUMP JUMPDEST ISZERO PUSH2 0x983 JUMPI JUMP JUMPDEST PUSH1 0x40 MLOAD PUSH3 0x461BCD PUSH1 0xE5 SHL DUP2 MSTORE PUSH1 0x20 PUSH1 0x4 DUP3 ADD MSTORE PUSH1 0xE PUSH1 0x24 DUP3 ADD MSTORE PUSH14 0x736C6963655F6F766572666C6F77 PUSH1 0x90 SHL PUSH1 0x44 DUP3 ADD MSTORE PUSH1 0x64 SWAP1 REVERT JUMPDEST ISZERO PUSH2 0x9C0 JUMPI JUMP JUMPDEST PUSH1 0x40 MLOAD PUSH3 0x461BCD PUSH1 0xE5 SHL DUP2 MSTORE PUSH1 0x20 PUSH1 0x4 DUP3 ADD MSTORE PUSH1 0x11 PUSH1 0x24 DUP3 ADD MSTORE PUSH17 0x736C6963655F6F75744F66426F756E6473 PUSH1 0x78 SHL PUSH1 0x44 DUP3 ADD MSTORE PUSH1 0x64 SWAP1 REVERT JUMPDEST PUSH1 0x0 PUSH2 0xA10 PUSH1 0x40 PUSH2 0xA09 DUP2 PUSH2 0x421 JUMP JUMPDEST LT ISZERO PUSH2 0x97C JUMP JUMPDEST DUP2 MLOAD PUSH1 0x40 DUP3 ADD SWAP1 DUP2 DUP4 GT PUSH2 0xA68 JUMPI SWAP1 PUSH2 0xA2A SWAP2 LT ISZERO PUSH2 0x9B9 JUMP JUMPDEST POP PUSH1 0x40 MLOAD SWAP1 PUSH1 0x20 DUP1 DUP4 ADD SWAP2 ADD PUSH1 0x60 DUP4 ADD JUMPDEST DUP1 DUP4 LT PUSH2 0xA55 JUMPI POP POP PUSH1 0x40 DUP3 MSTORE PUSH1 0x1F DUP1 NOT SWAP2 ADD AND PUSH1 0x40 MSTORE SWAP1 JUMP JUMPDEST SWAP1 SWAP2 PUSH1 0x20 DUP1 SWAP2 DUP5 MLOAD DUP2 MSTORE ADD SWAP3 ADD SWAP1 PUSH2 0xA3B JUMP JUMPDEST PUSH4 0x4E487B71 PUSH1 0xE0 SHL DUP4 MSTORE PUSH1 0x11 PUSH1 0x4 MSTORE PUSH1 0x24 DUP4 REVERT JUMPDEST PUSH2 0xA8A PUSH1 0x20 PUSH2 0xA09 DUP2 PUSH2 0x421 JUMP JUMPDEST DUP1 MLOAD PUSH1 0x60 PUSH2 0xA99 SWAP2 LT ISZERO PUSH2 0x9B9 JUMP JUMPDEST PUSH1 0x40 MLOAD SWAP1 PUSH1 0x20 DUP3 ADD SWAP1 PUSH1 0x60 PUSH1 0x40 DUP5 ADD SWAP2 ADD SWAP1 JUMPDEST DUP1 DUP4 LT PUSH2 0xAC6 JUMPI POP POP PUSH1 0x20 DUP3 MSTORE PUSH1 0x1F ADD PUSH1 0x1F NOT AND PUSH1 0x40 MSTORE SWAP1 JUMP JUMPDEST SWAP1 SWAP2 PUSH1 0x20 DUP1 SWAP2 DUP5 MLOAD DUP2 MSTORE ADD SWAP3 ADD SWAP1 PUSH2 0xAAC JUMP INVALID LOG2 PUSH5 0x6970667358 0x22 SLT KECCAK256 0xF6 0xCA 0xAF MOD PUSH2 0x3093 DUP9 0x23 0xCB 0xC 0xE GASLIMIT LOG1 SSTORE 0xE3 0xD SELFDESTRUCT 0xF7 DUP15 PUSH10 0x566BA611F2BE28641499 0x26 PUSH5 0x736F6C6343 STOP ADDMOD SHR STOP CALLER "
        },
        "methodIdentifiers": {
          "batchDeposit((bytes,bytes,bytes,uint256)[])": "e2ee27bf",
          "depositContract()": "e94ad65b"
        }
      },
      "storageLayout": {
        "storage": [],
        "types": null
      }
    }
  }
}