{
  "contracts/implementations/BatchDeposit.sol": {
    "BatchDeposit": {
      "abi": [
        {
          "inputs": [],
          "name": "DepositValueGreaterThan2048ETH",
          "type": "error"
        },
        {
          "inputs": [],
          "name": "DepositValueLessThan1ETH",
          "type": "error"
        },
        {
          "inputs": [],
          "name": "DepositValueMustBeMultipleOfGwei",
          "type": "error"
        },
        {
          "inputs": [],
          "name": "InvalidPubKeyLength",
          "type": "error"
        },
        {
          "inputs": [],
          "name": "InvalidSignatureLength",
          "type": "error"
        },
        {
          "inputs": [],
          "name": "InvalidWithdrawalCredLength",
          "type": "error"
        },
        {
          "inputs": [],
          "name": "MsgValueNotEqualToTotalDepositAmount",
          "type": "error"
        },
        {
          "inputs": [],
          "name": "NoDepositsProvided",
          "type": "error"
        },
        {
          "anonymous": false,
          "inputs": [
            {
              "indexed": true,
              "internalType": "bytes",
              "name": "pubKey",
              "type": "bytes"
            },
            {
              "indexed": true,
              "internalType": "bytes",
              "name": "withdrawalCredentials",
              "type": "bytes"
            },
            {
              "indexed": false,
              "internalType": "uint256",
              "name": "amount",
              "type": "uint256"
            }
          ],
          "name": "ValidatorDeposit",
          "type": "event"
        },
        {
          "inputs": [
            {
              "components": [
                {
                  "internalType": "bytes",
                  "name": "pubKey",
                  "type": "bytes"
                },
                {
                  "internalType": "bytes",
                  "name": "withdrawalCredentials",
                  "type": "bytes"
                },
                {
                  "internalType": "bytes",
                  "name": "signature",
                  "type": "bytes"
                },
                {
                  "internalType": "uint256",
                  "name": "amount",
                  "type": "uint256"
                }
              ],
              "internalType": "struct IBatchDeposit.Deposit[]",
              "name": "_deposits",
              "type": "tuple[]"
            }
          ],
          "name": "batchDeposit",
          "outputs": [],
          "stateMutability": "payable",
          "type": "function"
        },
        {
          "inputs": [],
          "name": "depositContract",
          "outputs": [
            {
              "internalType": "contract IDepositContract",
              "name": "",
              "type": "address"
            }
          ],
          "stateMutability": "view",
          "type": "function"
        }
      ],
      "evm": {
        "bytecode": {
          "linkReferences": {},
          "object": "60808060405234601557610aed908161001b8239f35b600080fdfe6080604052600436101561001257600080fd5b60003560e01c8063e2ee27bf146100375763e94ad65b1461003257600080fd5b610385565b60203660031901126102225760043567ffffffffffffffff8111610222573660238201121561022257806004013567ffffffffffffffff8111610222576024820191602436918360051b010111610222578015610369576000805b828110610238575034036102275760005b8181106100ac57005b6100c76100c26100bd8385876103c6565b61050d565b61069c565b9060606100d58285876103c6565b0135916100ec6100e68386886103c6565b806103ed565b936101056100fb85888a6103c6565b60208101906103ed565b959092610120610116878a8c6103c6565b60408101906103ed565b956f219ab540356cbb839cbe05303d7705fa3b156102225760009661015c926040519a8b98899788976304512a2360e31b8952600489016105be565b03916f219ab540356cbb839cbe05303d7705fa5af191821561021d57600192610202575b506101e2847f07468d6bd11350def18feb2ba4201196d670bdf016f5e33b4cbf4c202b41fbbd6101f96101e8876101bb6100e68883886103c6565b60606101da8a6101d26100fb82888d9e989e6103c6565b96909a6103c6565b01359761060d565b9461060d565b604051948552939081906020820190565b0390a3016100a3565b80610211600061021793610488565b8061037a565b84610180565b610601565b600080fd5b6306b2ca4160e51b60005260046000fd5b9060306102496100e68486886103c6565b9050036103585760206102696102608486886103c6565b828101906103ed565b9050036103475760606102806101168486886103c6565b90500361033657670de0b6b3a7640000606061029d8486886103c6565b01351061032657686f05b59d3b2000000060606102bb8486886103c6565b013511610315576102de60606102d28486886103c6565b0135633b9aca00900690565b610304576102fd60019160606102f58587896103c6565b013590610444565b9101610092565b6333670f3d60e21b60005260046000fd5b63546027bb60e01b60005260046000fd5b6271ed1d60e31b60005260046000fd5b634be6321b60e01b60005260046000fd5b63233fb10560e21b60005260046000fd5b634f88323960e11b60005260046000fd5b63db9d78e360e01b60005260046000fd5b600091031261022257565b346102225760003660031901126102225760206040516f219ab540356cbb839cbe05303d7705fa8152f35b634e487b7160e01b600052603260045260246000fd5b91908110156103e85760051b81013590607e1981360301821215610222570190565b6103b0565b903590601e1981360301821215610222570180359067ffffffffffffffff82116102225760200191813603831361022257565b90601f820180921161042e57565b634e487b7160e01b600052601160045260246000fd5b9190820180921161042e57565b634e487b7160e01b600052604160045260246000fd5b6080810190811067ffffffffffffffff82111761048357604052565b610451565b90601f8019910116810190811067ffffffffffffffff82111761048357604052565b67ffffffffffffffff811161048357601f01601f191660200190565b81601f82011215610222578035906104dd826104aa565b926104eb6040519485610488565b8284526020838301011161022257816000926020809301838601378301015290565b608081360312610222576040519061052482610467565b803567ffffffffffffffff81116102225761054290369083016104c6565b8252602081013567ffffffffffffffff81116102225761056590369083016104c6565b602083015260408101359067ffffffffffffffff82116102225761058e606092369083016104c6565b60408401520135606082015290565b908060209392818452848401376000828201840152601f01601f1916010190565b97969591926105fc946105e06105ee936060989660808d5260808d019161059d565b918a830360208c015261059d565b91878303604089015261059d565b930152565b6040513d6000823e3d90fd5b81604051928392833781016000815203902090565b9081519160005b83811061063a575050016000815290565b8060208092840101518185015201610629565b61065990601092610622565b600081520190565b61065990602092610622565b60209061067e939281520190610622565b90565b61068e9060389392610622565b906000825260188201520190565b6106c66106c16106b46060840151633b9aca00900490565b67ffffffffffffffff1690565b6108b8565b90602060006106fe6106e46106f2855160405192839187830161064d565b03601f198101835282610488565b60405191828092610622565b039060025afa1561021d5760005160408201602060006107366106e46106f261072786516109d7565b60405192839187830190610622565b039060025afa1561021d57602060006107686106e46106f261075a84519651610a5a565b604051928391878301610661565b039060025afa1561021d57600061079d6020926106f28351916106e46040519384928884019091604092825260208201520190565b039060025afa1561021d5760006107cb6020926106f2848451960151916106e460405193849288840161066d565b039060025afa1561021d5760006107f56020926106f28351956106e4604051938492888401610681565b039060025afa1561021d57600061082a6020926106f28351916106e46040519384928884019091604092825260208201520190565b039060025afa1561021d5760005190565b8051156103e85760200190565b8051600110156103e85760210190565b8051600210156103e85760220190565b8051600310156103e85760230190565b8051600410156103e85760240190565b8051600510156103e85760250190565b8051600610156103e85760260190565b8051600710156103e85760270190565b9060408051906108c88183610488565b60088252601f1901366020830137610957819367ffffffffffffffff60c01b9060c01b168060071a6108f98461083b565b538060061a61090784610848565b538060051a61091584610858565b538060041a61092384610868565b538060031a61093184610878565b538060021a61093f84610888565b538060011a61094d84610898565b5360001a916108a8565b53565b1561096157565b60405162461bcd60e51b815260206004820152600e60248201526d736c6963655f6f766572666c6f7760901b6044820152606490fd5b1561099e57565b60405162461bcd60e51b8152602060048201526011602482015270736c6963655f6f75744f66426f756e647360781b6044820152606490fd5b60006109ee60406109e781610420565b101561095a565b81516040820190818311610a465790610a08911015610997565b506040519060208083019101606083015b808310610a3357505060408252601f801991011660405290565b9091602080918451815201920190610a19565b634e487b7160e01b83526011600452602483fd5b610a6860206109e781610420565b80516060610a77911015610997565b6040519060208201906060604084019101905b808310610aa457505060208252601f01601f191660405290565b9091602080918451815201920190610a8a56fea26469706673582212203e7fc41306a99096a62d91dae17d7239492a2d2a2beffde9c2aa327f8fddbf0264736f6c634300081c0033",
          "opcodes": "PUSH1 0x80 DUP1 PUSH1 0x40 MSTORE CALLVALUE PUSH1 0x15 JUMPI PUSH2 0xAED SWAP1 DUP2 PUSH2 0x1B DUP3 CODECOPY RETURN JUMPDEST PUSH1 0x0 DUP1 REVERT INVALID PUSH1 0x80 PUSH1 0x40 MSTORE PUSH1 0x4 CALLDATASIZE LT ISZERO PUSH2 0x12 JUMPI PUSH1 0x0 DUP1 REVERT JUMPDEST PUSH1 0x0 CALLDATALOAD PUSH1 0xE0 SHR DUP1 PUSH4 0xE2EE27BF EQ PUSH2 0x37 JUMPI PUSH4 0xE94AD65B EQ PUSH2 0x32 JUMPI PUSH1 0x0 DUP1 REVERT JUMPDEST PUSH2 0x385 JUMP JUMPDEST PUSH1 0x20 CALLDATASIZE PUSH1 0x3 NOT ADD SLT PUSH2 0x222 JUMPI PUSH1 0x4 CALLDATALOAD PUSH8 0xFFFFFFFFFFFFFFFF DUP2 GT PUSH2 0x222 JUMPI CALLDATASIZE PUSH1 0x23 DUP3 ADD SLT ISZERO PUSH2 0x222 JUMPI DUP1 PUSH1 0x4 ADD CALLDATALOAD PUSH8 0xFFFFFFFFFFFFFFFF DUP2 GT PUSH2 0x222 JUMPI PUSH1 0x24 DUP3 ADD SWAP2 PUSH1 0x24 CALLDATASIZE SWAP2 DUP4 PUSH1 0x5 SHL ADD ADD GT PUSH2 0x222 JUMPI DUP1 ISZERO PUSH2 0x369 JUMPI PUSH1 0x0 DUP1 JUMPDEST DUP3 DUP2 LT PUSH2 0x238 JUMPI POP CALLVALUE SUB PUSH2 0x227 JUMPI PUSH1 0x0 JUMPDEST DUP2 DUP2 LT PUSH2 0xAC JUMPI STOP JUMPDEST PUSH2 0xC7 PUSH2 0xC2 PUSH2 0xBD DUP4 DUP6 DUP8 PUSH2 0x3C6 JUMP JUMPDEST PUSH2 0x50D JUMP JUMPDEST PUSH2 0x69C JUMP JUMPDEST SWAP1 PUSH1 0x60 PUSH2 0xD5 DUP3 DUP6 DUP8 PUSH2 0x3C6 JUMP JUMPDEST ADD CALLDATALOAD SWAP2 PUSH2 0xEC PUSH2 0xE6 DUP4 DUP7 DUP9 PUSH2 0x3C6 JUMP JUMPDEST DUP1 PUSH2 0x3ED JUMP JUMPDEST SWAP4 PUSH2 0x105 PUSH2 0xFB DUP6 DUP9 DUP11 PUSH2 0x3C6 JUMP JUMPDEST PUSH1 0x20 DUP2 ADD SWAP1 PUSH2 0x3ED JUMP JUMPDEST SWAP6 SWAP1 SWAP3 PUSH2 0x120 PUSH2 0x116 DUP8 DUP11 DUP13 PUSH2 0x3C6 JUMP JUMPDEST PUSH1 0x40 DUP2 ADD SWAP1 PUSH2 0x3ED JUMP JUMPDEST SWAP6 PUSH16 0x219AB540356CBB839CBE05303D7705FA EXTCODESIZE ISZERO PUSH2 0x222 JUMPI PUSH1 0x0 SWAP7 PUSH2 0x15C SWAP3 PUSH1 0x40 MLOAD SWAP11 DUP12 SWAP9 DUP10 SWAP8 DUP9 SWAP8 PUSH4 0x4512A23 PUSH1 0xE3 SHL DUP10 MSTORE PUSH1 0x4 DUP10 ADD PUSH2 0x5BE JUMP JUMPDEST SUB SWAP2 PUSH16 0x219AB540356CBB839CBE05303D7705FA GAS CALL SWAP2 DUP3 ISZERO PUSH2 0x21D JUMPI PUSH1 0x1 SWAP3 PUSH2 0x202 JUMPI JUMPDEST POP PUSH2 0x1E2 DUP5 PUSH32 0x7468D6BD11350DEF18FEB2BA4201196D670BDF016F5E33B4CBF4C202B41FBBD PUSH2 0x1F9 PUSH2 0x1E8 DUP8 PUSH2 0x1BB PUSH2 0xE6 DUP9 DUP4 DUP9 PUSH2 0x3C6 JUMP JUMPDEST PUSH1 0x60 PUSH2 0x1DA DUP11 PUSH2 0x1D2 PUSH2 0xFB DUP3 DUP9 DUP14 SWAP15 SWAP9 SWAP15 PUSH2 0x3C6 JUMP JUMPDEST SWAP7 SWAP1 SWAP11 PUSH2 0x3C6 JUMP JUMPDEST ADD CALLDATALOAD SWAP8 PUSH2 0x60D JUMP JUMPDEST SWAP5 PUSH2 0x60D JUMP JUMPDEST PUSH1 0x40 MLOAD SWAP5 DUP6 MSTORE SWAP4 SWAP1 DUP2 SWAP1 PUSH1 0x20 DUP3 ADD SWAP1 JUMP JUMPDEST SUB SWAP1 LOG3 ADD PUSH2 0xA3 JUMP JUMPDEST DUP1 PUSH2 0x211 PUSH1 0x0 PUSH2 0x217 SWAP4 PUSH2 0x488 JUMP JUMPDEST DUP1 PUSH2 0x37A JUMP JUMPDEST DUP5 PUSH2 0x180 JUMP JUMPDEST PUSH2 0x601 JUMP JUMPDEST PUSH1 0x0 DUP1 REVERT JUMPDEST PUSH4 0x6B2CA41 PUSH1 0xE5 SHL PUSH1 0x0 MSTORE PUSH1 0x4 PUSH1 0x0 REVERT JUMPDEST SWAP1 PUSH1 0x30 PUSH2 0x249 PUSH2 0xE6 DUP5 DUP7 DUP9 PUSH2 0x3C6 JUMP JUMPDEST SWAP1 POP SUB PUSH2 0x358 JUMPI PUSH1 0x20 PUSH2 0x269 PUSH2 0x260 DUP5 DUP7 DUP9 PUSH2 0x3C6 JUMP JUMPDEST DUP3 DUP2 ADD SWAP1 PUSH2 0x3ED JUMP JUMPDEST SWAP1 POP SUB PUSH2 0x347 JUMPI PUSH1 0x60 PUSH2 0x280 PUSH2 0x116 DUP5 DUP7 DUP9 PUSH2 0x3C6 JUMP JUMPDEST SWAP1 POP SUB PUSH2 0x336 JUMPI PUSH8 0xDE0B6B3A7640000 PUSH1 0x60 PUSH2 0x29D DUP5 DUP7 DUP9 PUSH2 0x3C6 JUMP JUMPDEST ADD CALLDATALOAD LT PUSH2 0x326 JUMPI PUSH9 0x6F05B59D3B20000000 PUSH1 0x60 PUSH2 0x2BB DUP5 DUP7 DUP9 PUSH2 0x3C6 JUMP JUMPDEST ADD CALLDATALOAD GT PUSH2 0x315 JUMPI PUSH2 0x2DE PUSH1 0x60 PUSH2 0x2D2 DUP5 DUP7 DUP9 PUSH2 0x3C6 JUMP JUMPDEST ADD CALLDATALOAD PUSH4 0x3B9ACA00 SWAP1 MOD SWAP1 JUMP JUMPDEST PUSH2 0x304 JUMPI PUSH2 0x2FD PUSH1 0x1 SWAP2 PUSH1 0x60 PUSH2 0x2F5 DUP6 DUP8 DUP10 PUSH2 0x3C6 JUMP JUMPDEST ADD CALLDATALOAD SWAP1 PUSH2 0x444 JUMP JUMPDEST SWAP2 ADD PUSH2 0x92 JUMP JUMPDEST PUSH4 0x33670F3D PUSH1 0xE2 SHL PUSH1 0x0 MSTORE PUSH1 0x4 PUSH1 0x0 REVERT JUMPDEST PUSH4 0x546027BB PUSH1 0xE0 SHL PUSH1 0x0 MSTORE PUSH1 0x4 PUSH1 0x0 REVERT JUMPDEST PUSH3 0x71ED1D PUSH1 0xE3 SHL PUSH1 0x0 MSTORE PUSH1 0x4 PUSH1 0x0 REVERT JUMPDEST PUSH4 0x4BE6321B PUSH1 0xE0 SHL PUSH1 0x0 MSTORE PUSH1 0x4 PUSH1 0x0 REVERT JUMPDEST PUSH4 0x233FB105 PUSH1 0xE2 SHL PUSH1 0x0 MSTORE PUSH1 0x4 PUSH1 0x0 REVERT JUMPDEST PUSH4 0x4F883239 PUSH1 0xE1 SHL PUSH1 0x0 MSTORE PUSH1 0x4 PUSH1 0x0 REVERT JUMPDEST PUSH4 0xDB9D78E3 PUSH1 0xE0 SHL PUSH1 0x0 MSTORE PUSH1 0x4 PUSH1 0x0 REVERT JUMPDEST PUSH1 0x0 SWAP2 SUB SLT PUSH2 0x222 JUMPI JUMP JUMPDEST CALLVALUE PUSH2 0x222 JUMPI PUSH1 0x0 CALLDATASIZE PUSH1 0x3 NOT ADD SLT PUSH2 0x222 JUMPI PUSH1 0x20 PUSH1 0x40 MLOAD PUSH16 0x219AB540356CBB839CBE05303D7705FA DUP2 MSTORE RETURN JUMPDEST PUSH4 0x4E487B71 PUSH1 0xE0 SHL PUSH1 0x0 MSTORE PUSH1 0x32 PUSH1 0x4 MSTORE PUSH1 0x24 PUSH1 0x0 REVERT JUMPDEST SWAP2 SWAP1 DUP2 LT ISZERO PUSH2 0x3E8 JUMPI PUSH1 0x5 SHL DUP2 ADD CALLDATALOAD SWAP1 PUSH1 0x7E NOT DUP2 CALLDATASIZE SUB ADD DUP3 SLT ISZERO PUSH2 0x222 JUMPI ADD SWAP1 JUMP JUMPDEST PUSH2 0x3B0 JUMP JUMPDEST SWAP1 CALLDATALOAD SWAP1 PUSH1 0x1E NOT DUP2 CALLDATASIZE SUB ADD DUP3 SLT ISZERO PUSH2 0x222 JUMPI ADD DUP1 CALLDATALOAD SWAP1 PUSH8 0xFFFFFFFFFFFFFFFF DUP3 GT PUSH2 0x222 JUMPI PUSH1 0x20 ADD SWAP2 DUP2 CALLDATASIZE SUB DUP4 SGT PUSH2 0x222 JUMPI JUMP JUMPDEST SWAP1 PUSH1 0x1F DUP3 ADD DUP1 SWAP3 GT PUSH2 0x42E JUMPI JUMP JUMPDEST PUSH4 0x4E487B71 PUSH1 0xE0 SHL PUSH1 0x0 MSTORE PUSH1 0x11 PUSH1 0x4 MSTORE PUSH1 0x24 PUSH1 0x0 REVERT JUMPDEST SWAP2 SWAP1 DUP3 ADD DUP1 SWAP3 GT PUSH2 0x42E JUMPI JUMP JUMPDEST PUSH4 0x4E487B71 PUSH1 0xE0 SHL PUSH1 0x0 MSTORE PUSH1 0x41 PUSH1 0x4 MSTORE PUSH1 0x24 PUSH1 0x0 REVERT JUMPDEST PUSH1 0x80 DUP2 ADD SWAP1 DUP2 LT PUSH8 0xFFFFFFFFFFFFFFFF DUP3 GT OR PUSH2 0x483 JUMPI PUSH1 0x40 MSTORE JUMP JUMPDEST PUSH2 0x451 JUMP JUMPDEST SWAP1 PUSH1 0x1F DUP1 NOT SWAP2 ADD AND DUP2 ADD SWAP1 DUP2 LT PUSH8 0xFFFFFFFFFFFFFFFF DUP3 GT OR PUSH2 0x483 JUMPI PUSH1 0x40 MSTORE JUMP JUMPDEST PUSH8 0xFFFFFFFFFFFFFFFF DUP2 GT PUSH2 0x483 JUMPI PUSH1 0x1F ADD PUSH1 0x1F NOT AND PUSH1 0x20 ADD SWAP1 JUMP JUMPDEST DUP2 PUSH1 0x1F DUP3 ADD SLT ISZERO PUSH2 0x222 JUMPI DUP1 CALLDATALOAD SWAP1 PUSH2 0x4DD DUP3 PUSH2 0x4AA JUMP JUMPDEST SWAP3 PUSH2 0x4EB PUSH1 0x40 MLOAD SWAP5 DUP6 PUSH2 0x488 JUMP JUMPDEST DUP3 DUP5 MSTORE PUSH1 0x20 DUP4 DUP4 ADD ADD GT PUSH2 0x222 JUMPI DUP2 PUSH1 0x0 SWAP3 PUSH1 0x20 DUP1 SWAP4 ADD DUP4 DUP7 ADD CALLDATACOPY DUP4 ADD ADD MSTORE SWAP1 JUMP JUMPDEST PUSH1 0x80 DUP2 CALLDATASIZE SUB SLT PUSH2 0x222 JUMPI PUSH1 0x40 MLOAD SWAP1 PUSH2 0x524 DUP3 PUSH2 0x467 JUMP JUMPDEST DUP1 CALLDATALOAD PUSH8 0xFFFFFFFFFFFFFFFF DUP2 GT PUSH2 0x222 JUMPI PUSH2 0x542 SWAP1 CALLDATASIZE SWAP1 DUP4 ADD PUSH2 0x4C6 JUMP JUMPDEST DUP3 MSTORE PUSH1 0x20 DUP2 ADD CALLDATALOAD PUSH8 0xFFFFFFFFFFFFFFFF DUP2 GT PUSH2 0x222 JUMPI PUSH2 0x565 SWAP1 CALLDATASIZE SWAP1 DUP4 ADD PUSH2 0x4C6 JUMP JUMPDEST PUSH1 0x20 DUP4 ADD MSTORE PUSH1 0x40 DUP2 ADD CALLDATALOAD SWAP1 PUSH8 0xFFFFFFFFFFFFFFFF DUP3 GT PUSH2 0x222 JUMPI PUSH2 0x58E PUSH1 0x60 SWAP3 CALLDATASIZE SWAP1 DUP4 ADD PUSH2 0x4C6 JUMP JUMPDEST PUSH1 0x40 DUP5 ADD MSTORE ADD CALLDATALOAD PUSH1 0x60 DUP3 ADD MSTORE SWAP1 JUMP JUMPDEST SWAP1 DUP1 PUSH1 0x20 SWAP4 SWAP3 DUP2 DUP5 MSTORE DUP5 DUP5 ADD CALLDATACOPY PUSH1 0x0 DUP3 DUP3 ADD DUP5 ADD MSTORE PUSH1 0x1F ADD PUSH1 0x1F NOT AND ADD ADD SWAP1 JUMP JUMPDEST SWAP8 SWAP7 SWAP6 SWAP2 SWAP3 PUSH2 0x5FC SWAP5 PUSH2 0x5E0 PUSH2 0x5EE SWAP4 PUSH1 0x60 SWAP9 SWAP7 PUSH1 0x80 DUP14 MSTORE PUSH1 0x80 DUP14 ADD SWAP2 PUSH2 0x59D JUMP JUMPDEST SWAP2 DUP11 DUP4 SUB PUSH1 0x20 DUP13 ADD MSTORE PUSH2 0x59D JUMP JUMPDEST SWAP2 DUP8 DUP4 SUB PUSH1 0x40 DUP10 ADD MSTORE PUSH2 0x59D JUMP JUMPDEST SWAP4 ADD MSTORE JUMP JUMPDEST PUSH1 0x40 MLOAD RETURNDATASIZE PUSH1 0x0 DUP3 RETURNDATACOPY RETURNDATASIZE SWAP1 REVERT JUMPDEST DUP2 PUSH1 0x40 MLOAD SWAP3 DUP4 SWAP3 DUP4 CALLDATACOPY DUP2 ADD PUSH1 0x0 DUP2 MSTORE SUB SWAP1 KECCAK256 SWAP1 JUMP JUMPDEST SWAP1 DUP2 MLOAD SWAP2 PUSH1 0x0 JUMPDEST DUP4 DUP2 LT PUSH2 0x63A JUMPI POP POP ADD PUSH1 0x0 DUP2 MSTORE SWAP1 JUMP JUMPDEST DUP1 PUSH1 0x20 DUP1 SWAP3 DUP5 ADD ADD MLOAD DUP2 DUP6 ADD MSTORE ADD PUSH2 0x629 JUMP JUMPDEST PUSH2 0x659 SWAP1 PUSH1 0x10 SWAP3 PUSH2 0x622 JUMP JUMPDEST PUSH1 0x0 DUP2 MSTORE ADD SWAP1 JUMP JUMPDEST PUSH2 0x659 SWAP1 PUSH1 0x20 SWAP3 PUSH2 0x622 JUMP JUMPDEST PUSH1 0x20 SWAP1 PUSH2 0x67E SWAP4 SWAP3 DUP2 MSTORE ADD SWAP1 PUSH2 0x622 JUMP JUMPDEST SWAP1 JUMP JUMPDEST PUSH2 0x68E SWAP1 PUSH1 0x38 SWAP4 SWAP3 PUSH2 0x622 JUMP JUMPDEST SWAP1 PUSH1 0x0 DUP3 MSTORE PUSH1 0x18 DUP3 ADD MSTORE ADD SWAP1 JUMP JUMPDEST PUSH2 0x6C6 PUSH2 0x6C1 PUSH2 0x6B4 PUSH1 0x60 DUP5 ADD MLOAD PUSH4 0x3B9ACA00 SWAP1 DIV SWAP1 JUMP JUMPDEST PUSH8 0xFFFFFFFFFFFFFFFF AND SWAP1 JUMP JUMPDEST PUSH2 0x8B8 JUMP JUMPDEST SWAP1 PUSH1 0x20 PUSH1 0x0 PUSH2 0x6FE PUSH2 0x6E4 PUSH2 0x6F2 DUP6 MLOAD PUSH1 0x40 MLOAD SWAP3 DUP4 SWAP2 DUP8 DUP4 ADD PUSH2 0x64D JUMP JUMPDEST SUB PUSH1 0x1F NOT DUP2 ADD DUP4 MSTORE DUP3 PUSH2 0x488 JUMP JUMPDEST PUSH1 0x40 MLOAD SWAP2 DUP3 DUP1 SWAP3 PUSH2 0x622 JUMP JUMPDEST SUB SWAP1 PUSH1 0x2 GAS STATICCALL ISZERO PUSH2 0x21D JUMPI PUSH1 0x0 MLOAD PUSH1 0x40 DUP3 ADD PUSH1 0x20 PUSH1 0x0 PUSH2 0x736 PUSH2 0x6E4 PUSH2 0x6F2 PUSH2 0x727 DUP7 MLOAD PUSH2 0x9D7 JUMP JUMPDEST PUSH1 0x40 MLOAD SWAP3 DUP4 SWAP2 DUP8 DUP4 ADD SWAP1 PUSH2 0x622 JUMP JUMPDEST SUB SWAP1 PUSH1 0x2 GAS STATICCALL ISZERO PUSH2 0x21D JUMPI PUSH1 0x20 PUSH1 0x0 PUSH2 0x768 PUSH2 0x6E4 PUSH2 0x6F2 PUSH2 0x75A DUP5 MLOAD SWAP7 MLOAD PUSH2 0xA5A JUMP JUMPDEST PUSH1 0x40 MLOAD SWAP3 DUP4 SWAP2 DUP8 DUP4 ADD PUSH2 0x661 JUMP JUMPDEST SUB SWAP1 PUSH1 0x2 GAS STATICCALL ISZERO PUSH2 0x21D JUMPI PUSH1 0x0 PUSH2 0x79D PUSH1 0x20 SWAP3 PUSH2 0x6F2 DUP4 MLOAD SWAP2 PUSH2 0x6E4 PUSH1 0x40 MLOAD SWAP4 DUP5 SWAP3 DUP9 DUP5 ADD SWAP1 SWAP2 PUSH1 0x40 SWAP3 DUP3 MSTORE PUSH1 0x20 DUP3 ADD MSTORE ADD SWAP1 JUMP JUMPDEST SUB SWAP1 PUSH1 0x2 GAS STATICCALL ISZERO PUSH2 0x21D JUMPI PUSH1 0x0 PUSH2 0x7CB PUSH1 0x20 SWAP3 PUSH2 0x6F2 DUP5 DUP5 MLOAD SWAP7 ADD MLOAD SWAP2 PUSH2 0x6E4 PUSH1 0x40 MLOAD SWAP4 DUP5 SWAP3 DUP9 DUP5 ADD PUSH2 0x66D JUMP JUMPDEST SUB SWAP1 PUSH1 0x2 GAS STATICCALL ISZERO PUSH2 0x21D JUMPI PUSH1 0x0 PUSH2 0x7F5 PUSH1 0x20 SWAP3 PUSH2 0x6F2 DUP4 MLOAD SWAP6 PUSH2 0x6E4 PUSH1 0x40 MLOAD SWAP4 DUP5 SWAP3 DUP9 DUP5 ADD PUSH2 0x681 JUMP JUMPDEST SUB SWAP1 PUSH1 0x2 GAS STATICCALL ISZERO PUSH2 0x21D JUMPI PUSH1 0x0 PUSH2 0x82A PUSH1 0x20 SWAP3 PUSH2 0x6F2 DUP4 MLOAD SWAP2 PUSH2 0x6E4 PUSH1 0x40 MLOAD SWAP4 DUP5 SWAP3 DUP9 DUP5 ADD SWAP1 SWAP2 PUSH1 0x40 SWAP3 DUP3 MSTORE PUSH1 0x20 DUP3 ADD MSTORE ADD SWAP1 JUMP JUMPDEST SUB SWAP1 PUSH1 0x2 GAS STATICCALL ISZERO PUSH2 0x21D JUMPI PUSH1 0x0 MLOAD SWAP1 JUMP JUMPDEST DUP1 MLOAD ISZERO PUSH2 0x3E8 JUMPI PUSH1 0x20 ADD SWAP1 JUMP JUMPDEST DUP1 MLOAD PUSH1 0x1 LT ISZERO PUSH2 0x3E8 JUMPI PUSH1 0x21 ADD SWAP1 JUMP JUMPDEST DUP1 MLOAD PUSH1 0x2 LT ISZERO PUSH2 0x3E8 JUMPI PUSH1 0x22 ADD SWAP1 JUMP JUMPDEST DUP1 MLOAD PUSH1 0x3 LT ISZERO PUSH2 0x3E8 JUMPI PUSH1 0x23 ADD SWAP1 JUMP JUMPDEST DUP1 MLOAD PUSH1 0x4 LT ISZERO PUSH2 0x3E8 JUMPI PUSH1 0x24 ADD SWAP1 JUMP JUMPDEST DUP1 MLOAD PUSH1 0x5 LT ISZERO PUSH2 0x3E8 JUMPI PUSH1 0x25 ADD SWAP1 JUMP JUMPDEST DUP1 MLOAD PUSH1 0x6 LT ISZERO PUSH2 0x3E8 JUMPI PUSH1 0x26 ADD SWAP1 JUMP JUMPDEST DUP1 MLOAD PUSH1 0x7 LT ISZERO PUSH2 0x3E8 JUMPI PUSH1 0x27 ADD SWAP1 JUMP JUMPDEST SWAP1 PUSH1 0x40 DUP1 MLOAD SWAP1 PUSH2 0x8C8 DUP2 DUP4 PUSH2 0x488 JUMP JUMPDEST PUSH1 0x8 DUP3 MSTORE PUSH1 0x1F NOT ADD CALLDATASIZE PUSH1 0x20 DUP4 ADD CALLDATACOPY PUSH2 0x957 DUP2 SWAP4 PUSH8 0xFFFFFFFFFFFFFFFF PUSH1 0xC0 SHL SWAP1 PUSH1 0xC0 SHL AND DUP1 PUSH1 0x7 BYTE PUSH2 0x8F9 DUP5 PUSH2 0x83B JUMP JUMPDEST MSTORE8 DUP1 PUSH1 0x6 BYTE PUSH2 0x907 DUP5 PUSH2 0x848 JUMP JUMPDEST MSTORE8 DUP1 PUSH1 0x5 BYTE PUSH2 0x915 DUP5 PUSH2 0x858 JUMP JUMPDEST MSTORE8 DUP1 PUSH1 0x4 BYTE PUSH2 0x923 DUP5 PUSH2 0x868 JUMP JUMPDEST MSTORE8 DUP1 PUSH1 0x3 BYTE PUSH2 0x931 DUP5 PUSH2 0x878 JUMP JUMPDEST MSTORE8 DUP1 PUSH1 0x2 BYTE PUSH2 0x93F DUP5 PUSH2 0x888 JUMP JUMPDEST MSTORE8 DUP1 PUSH1 0x1 BYTE PUSH2 0x94D DUP5 PUSH2 0x898 JUMP JUMPDEST MSTORE8 PUSH1 0x0 BYTE SWAP2 PUSH2 0x8A8 JUMP JUMPDEST MSTORE8 JUMP JUMPDEST ISZERO PUSH2 0x961 JUMPI JUMP JUMPDEST PUSH1 0x40 MLOAD PUSH3 0x461BCD PUSH1 0xE5 SHL DUP2 MSTORE PUSH1 0x20 PUSH1 0x4 DUP3 ADD MSTORE PUSH1 0xE PUSH1 0x24 DUP3 ADD MSTORE PUSH14 0x736C6963655F6F766572666C6F77 PUSH1 0x90 SHL PUSH1 0x44 DUP3 ADD MSTORE PUSH1 0x64 SWAP1 REVERT JUMPDEST ISZERO PUSH2 0x99E JUMPI JUMP JUMPDEST PUSH1 0x40 MLOAD PUSH3 0x461BCD PUSH1 0xE5 SHL DUP2 MSTORE PUSH1 0x20 PUSH1 0x4 DUP3 ADD MSTORE PUSH1 0x11 PUSH1 0x24 DUP3 ADD MSTORE PUSH17 0x736C6963655F6F75744F66426F756E6473 PUSH1 0x78 SHL PUSH1 0x44 DUP3 ADD MSTORE PUSH1 0x64 SWAP1 REVERT JUMPDEST PUSH1 0x0 PUSH2 0x9EE PUSH1 0x40 PUSH2 0x9E7 DUP2 PUSH2 0x420 JUMP JUMPDEST LT ISZERO PUSH2 0x95A JUMP JUMPDEST DUP2 MLOAD PUSH1 0x40 DUP3 ADD SWAP1 DUP2 DUP4 GT PUSH2 0xA46 JUMPI SWAP1 PUSH2 0xA08 SWAP2 LT ISZERO PUSH2 0x997 JUMP JUMPDEST POP PUSH1 0x40 MLOAD SWAP1 PUSH1 0x20 DUP1 DUP4 ADD SWAP2 ADD PUSH1 0x60 DUP4 ADD JUMPDEST DUP1 DUP4 LT PUSH2 0xA33 JUMPI POP POP PUSH1 0x40 DUP3 MSTORE PUSH1 0x1F DUP1 NOT SWAP2 ADD AND PUSH1 0x40 MSTORE SWAP1 JUMP JUMPDEST SWAP1 SWAP2 PUSH1 0x20 DUP1 SWAP2 DUP5 MLOAD DUP2 MSTORE ADD SWAP3 ADD SWAP1 PUSH2 0xA19 JUMP JUMPDEST PUSH4 0x4E487B71 PUSH1 0xE0 SHL DUP4 MSTORE PUSH1 0x11 PUSH1 0x4 MSTORE PUSH1 0x24 DUP4 REVERT JUMPDEST PUSH2 0xA68 PUSH1 0x20 PUSH2 0x9E7 DUP2 PUSH2 0x420 JUMP JUMPDEST DUP1 MLOAD PUSH1 0x60 PUSH2 0xA77 SWAP2 LT ISZERO PUSH2 0x997 JUMP JUMPDEST PUSH1 0x40 MLOAD SWAP1 PUSH1 0x20 DUP3 ADD SWAP1 PUSH1 0x60 PUSH1 0x40 DUP5 ADD SWAP2 ADD SWAP1 JUMPDEST DUP1 DUP4 LT PUSH2 0xAA4 JUMPI POP POP PUSH1 0x20 DUP3 MSTORE PUSH1 0x1F ADD PUSH1 0x1F NOT AND PUSH1 0x40 MSTORE SWAP1 JUMP JUMPDEST SWAP1 SWAP2 PUSH1 0x20 DUP1 SWAP2 DUP5 MLOAD DUP2 MSTORE ADD SWAP3 ADD SWAP1 PUSH2 0xA8A JUMP INVALID LOG2 PUSH5 0x6970667358 0x22 SLT KECCAK256 RETURNDATACOPY PUSH32 0xC41306A99096A62D91DAE17D7239492A2D2A2BEFFDE9C2AA327F8FDDBF026473 PUSH16 0x6C634300081C00330000000000000000 "
        },
        "methodIdentifiers": {
          "batchDeposit((bytes,bytes,bytes,uint256)[])": "e2ee27bf",
          "depositContract()": "e94ad65b"
        }
      },
      "storageLayout": {
        "storage": [],
        "types": null
      }
    }
  }
}